:020000002628B0
:0E000600831203135F088A005E088200080060
:1000140003208A110A128000840ADE0A0319DF0A07
:08002400F003031D0A28080087
:10002C0083160313870183128701831688018312B9
:10003C00880183160516013086008312860108009C
:10004C0096221620051EE228861400302106031D78
:10005C00312814302006031D3F2800302306031DD1
:10006C00392817302206031D3F28860186140616F0
:10007C008616A401A501AC01AD012008F0002108F1
:10008C00F100F00DF10D701070082E3E8400000888
:10009C0087002208F0002308F100F00DF10D70101C
:1000AC0070082E3E8400000888000B30FB002630C0
:1000BC00FC005D30FD00FD0B6128FC0B6128FB0B87
:1000CC006128000000000130A002031CA1030130D4
:1000DC00A202031CA30300302106031D7728003065
:1000EC002006031DA92800302906031D7F28003097
:1000FC002806031D8C28A80A0319A90A0330A0009E
:10010C000030A100861506120611A9280030290618
:10011C00031D922801302806031DA0280230A800D8
:10012C000030A9000F30A0000030A100861106128B
:10013C000615A928A801A9011430A0000030A100BF
:10014C0086110616061100302306031DAF28003059
:10015C002206031DE12800302B06031DB7280030B2
:10016C002A06031DC428AA0A0319AB0A0330A200ED
:10017C000030A300061786138612E12800302B06E8
:10018C00031DCA2801302A06031DD8280230AA00F4
:10019C000030AB001730A2000030A300061386130A
:1001AC008616E128AA01AB010C30A2000030A30096
:1001BC000613861786122828861D1F29200821045D
:1001CC0003190C292008F0002108F100F00DF10DA5
:1001DC0070102E30F007700884000008870070083B
:1001EC008400000888000130A002031CA1030B301E
:1001FC00FB002630FC005D30FD00FD0B0329FC0BE1
:10020C000329FB0B032900000000E4288611861249
:10021C000612061586170F30A0000030A1000C3016
:10022C00A2000030A3000230A8000030A900AA01EF
:10023C00AB01061F5C292208230403194929220853
:10024C00F0002308F100F00DF10D70102E30F007C6
:10025C00700884000008870070088400000888007B
:10026C000130A202031CA3030B30FB002630FC0060
:10027C005D30FD00FD0B4029FC0B4029FB0B402998
:10028C000000000021298616061606130611861397
:10029C001430A0000030A1001730A2000030A300E1
:1002AC00A801A9010230AA000030AB00051A502A9F
:1002BC008610061E6729861E67290230A4000030AE
:1002CC00A500061D6F29861F6F290130A400003080
:1002DC00A50000302506031D752900302406031DDA
:1002EC00812906118616861106130616861302300E
:1002FC00A4000030A500061C8629051A8629812930
:10030C00A40A0319A50A8030F0008030250670027B
:10031C00031D92292408023C031898290130A400DB
:10032C000030A5000130AC000030AD000618A1294A
:10033C00051AA1299C29051EA429502A003025063E
:10034C00031DAA2901302406031DFA2900302D06AD
:10035C00031DB22901302C06031DFA290330A60017
:10036C000030A7008030F000803027067002031D9B
:10037C00C1292608003C0318E62986142608F0003B
:10038C002708F100F00DF10D701070082E3E84005E
:10039C00000887008801861506120B30FB002630FA
:1003AC00FC005D30FD00FD0BD929FC0BD929FB0BA2
:1003BC00D929000000000130A602031CA703B829AC
:1003CC00861086110615861286170F30A000003095
:1003DC00A1000C30A2000030A3000230A8000030B5
:1003EC00A900AA01AB014F2A00302506031D002AE3
:1003FC0002302406031D4F2A00302D06031D082A47
:10040C0001302C06031D4F2A0330A6000030A70034
:10041C008030F000803027067002031D172A260852
:10042C00003C03183C2A861487012608F000270894
:10043C00F100F00DF10D701070082E3E84000008D4
:10044C008800061786130B30FB002630FC005D304D
:10045C00FD00FD0B2F2AFC0B2F2AFB0B2F2A000073
:10046C0000000130A602031CA7030E2A86100611F9
:10047C000613061686161430A0000030A1001730A3
:10048C00A2000030A300A801A9010230AA0000308C
:08049C00AB005C292828512A5D
:10052C00203084003E3083120313F0005730DE007D
:08053C000230DF000A20080074
:0404AE0014340034CE
:0404B20017340034C7
:0404B60000340034DA
:0404BA0000340034D6
:0404BE0000340034D2
:0404C20002340034CC
:0404C60000340034CA
:1004CA00003400340134003402340034033400347C
:1004DA00043400340534003406340034073400345C
:1004EA000834003409340034103400341134003430
:1004FA001234003413340034143400341534003404
:10050A0016340034173400341834003419340034E3
:10051A0020340034213400342234003423340034AB
:02400E004A2F37
:00000001FF
